{
  "_format": "hh-sol-artifact-1",
  "contractName": "Proposal",
  "sourceName": "contracts/Proposal.sol",
  "abi": [
    {
      "inputs": [
        {
          "internalType": "string[]",
          "name": "_proposalDataURIs",
          "type": "string[]"
        }
      ],
      "stateMutability": "nonpayable",
      "type": "constructor"
    },
    {
      "anonymous": false,
      "inputs": [
        {
          "indexed": true,
          "internalType": "address",
          "name": "previousOwner",
          "type": "address"
        },
        {
          "indexed": true,
          "internalType": "address",
          "name": "newOwner",
          "type": "address"
        }
      ],
      "name": "OwnershipTransferred",
      "type": "event"
    },
    {
      "inputs": [],
      "name": "NFT",
      "outputs": [
        {
          "internalType": "contract MainNft",
          "name": "",
          "type": "address"
        }
      ],
      "stateMutability": "view",
      "type": "function"
    },
    {
      "inputs": [
        {
          "internalType": "uint256",
          "name": "",
          "type": "uint256"
        }
      ],
      "name": "Proposals",
      "outputs": [
        {
          "internalType": "address",
          "name": "reviewer",
          "type": "address"
        },
        {
          "internalType": "uint256",
          "name": "nftID",
          "type": "uint256"
        },
        {
          "internalType": "string",
          "name": "proposalDataURI",
          "type": "string"
        },
        {
          "internalType": "address",
          "name": "contributor",
          "type": "address"
        }
      ],
      "stateMutability": "view",
      "type": "function"
    },
    {
      "inputs": [
        {
          "internalType": "uint256",
          "name": "_proposalID",
          "type": "uint256"
        }
      ],
      "name": "approveProposal",
      "outputs": [],
      "stateMutability": "nonpayable",
      "type": "function"
    },
    {
      "inputs": [
        {
          "internalType": "string",
          "name": "_proposalDataURI",
          "type": "string"
        }
      ],
      "name": "createProposal",
      "outputs": [],
      "stateMutability": "nonpayable",
      "type": "function"
    },
    {
      "inputs": [],
      "name": "owner",
      "outputs": [
        {
          "internalType": "address",
          "name": "",
          "type": "address"
        }
      ],
      "stateMutability": "view",
      "type": "function"
    },
    {
      "inputs": [],
      "name": "proposalID",
      "outputs": [
        {
          "internalType": "uint256",
          "name": "",
          "type": "uint256"
        }
      ],
      "stateMutability": "view",
      "type": "function"
    },
    {
      "inputs": [],
      "name": "renounceOwnership",
      "outputs": [],
      "stateMutability": "nonpayable",
      "type": "function"
    },
    {
      "inputs": [
        {
          "internalType": "address",
          "name": "newOwner",
          "type": "address"
        }
      ],
      "name": "transferOwnership",
      "outputs": [],
      "stateMutability": "nonpayable",
      "type": "function"
    }
  ],
  "bytecode": "0x608060405260006002553480156200001657600080fd5b50604051620054653803806200546583398181016040528101906200003c91906200053f565b6200005c620000506200014b60201b60201c565b6200015360201b60201c565b6040516200006a9062000352565b604051809103906000f08015801562000087573d6000803e3d6000fd5b50600160006101000a81548173ffffffffffffffffffffffffffffffffffffffff021916908373ffffffffffffffffffffffffffffffffffffffff16021790555060005b81518160ff16101562000143576200012d828260ff168151811062000119577f4e487b7100000000000000000000000000000000000000000000000000000000600052603260045260246000fd5b60200260200101516200021760201b60201c565b80806200013a9062000719565b915050620000cb565b5050620007e6565b600033905090565b60008060009054906101000a900473ffffffffffffffffffffffffffffffffffffffff169050816000806101000a81548173ffffffffffffffffffffffffffffffffffffffff021916908373ffffffffffffffffffffffffffffffffffffffff1602179055508173ffffffffffffffffffffffffffffffffffffffff168173ffffffffffffffffffffffffffffffffffffffff167f8be0079c531659141344cd1fd0a4f28419497f9722a3daafe3b4186f6b6457e060405160405180910390a35050565b6040518060800160405280600073ffffffffffffffffffffffffffffffffffffffff168152602001600081526020018281526020013373ffffffffffffffffffffffffffffffffffffffff1681525060036000600254815260200190815260200160002060008201518160000160006101000a81548173ffffffffffffffffffffffffffffffffffffffff021916908373ffffffffffffffffffffffffffffffffffffffff160217905550602082015181600101556040820151816002019080519060200190620002ea92919062000360565b5060608201518160030160006101000a81548173ffffffffffffffffffffffffffffffffffffffff021916908373ffffffffffffffffffffffffffffffffffffffff160217905550905050600260008154809291906200034a90620006cb565b919050555050565b613b8080620018e583390190565b8280546200036e906200065f565b90600052602060002090601f016020900481019282620003925760008555620003de565b82601f10620003ad57805160ff1916838001178555620003de565b82800160010185558215620003de579182015b82811115620003dd578251825591602001919060010190620003c0565b5b509050620003ed9190620003f1565b5090565b5b808211156200040c576000816000905550600101620003f2565b5090565b6000620004276200042184620005ad565b62000584565b905080838252602082019050828560208602820111156200044757600080fd5b60005b858110156200049657815167ffffffffffffffff8111156200046b57600080fd5b8086016200047a898262000512565b855260208501945060208401935050506001810190506200044a565b5050509392505050565b6000620004b7620004b184620005dc565b62000584565b905082815260208101848484011115620004d057600080fd5b620004dd84828562000629565b509392505050565b600082601f830112620004f757600080fd5b81516200050984826020860162000410565b91505092915050565b600082601f8301126200052457600080fd5b815162000536848260208601620004a0565b91505092915050565b6000602082840312156200055257600080fd5b600082015167ffffffffffffffff8111156200056d57600080fd5b6200057b84828501620004e5565b91505092915050565b600062000590620005a3565b90506200059e828262000695565b919050565b6000604051905090565b600067ffffffffffffffff821115620005cb57620005ca620007a6565b5b602082029050602081019050919050565b600067ffffffffffffffff821115620005fa57620005f9620007a6565b5b6200060582620007d5565b9050602081019050919050565b6000819050919050565b600060ff82169050919050565b60005b83811015620006495780820151818401526020810190506200062c565b8381111562000659576000848401525b50505050565b600060028204905060018216806200067857607f821691505b602082108114156200068f576200068e62000777565b5b50919050565b620006a082620007d5565b810181811067ffffffffffffffff82111715620006c257620006c1620007a6565b5b80604052505050565b6000620006d88262000612565b91507fffffffffffffffffffffffffffffffffffffffffffffffffffffffffffffffff8214156200070e576200070d62000748565b5b600182019050919050565b600062000726826200061c565b915060ff8214156200073d576200073c62000748565b5b600182019050919050565b7f4e487b7100000000000000000000000000000000000000000000000000000000600052601160045260246000fd5b7f4e487b7100000000000000000000000000000000000000000000000000000000600052602260045260246000fd5b7f4e487b7100000000000000000000000000000000000000000000000000000000600052604160045260246000fd5b6000601f19601f8301169050919050565b6110ef80620007f66000396000f3fe608060405234801561001057600080fd5b50600436106100885760003560e01c80638da5cb5b1161005b5780638da5cb5b146100ef57806398951b561461010d578063d1dbe7d814610129578063f2fde38b1461015c57610088565b8063371fa8541461008d57806349c2a1a6146100ab578063715018a6146100c75780637c0b8de2146100d1575b600080fd5b610095610178565b6040516100a29190610d5c565b60405180910390f35b6100c560048036038101906100c09190610a68565b61017e565b005b6100cf6102b5565b005b6100d961033d565b6040516100e69190610ce1565b60405180910390f35b6100f7610363565b6040516101049190610c4a565b60405180910390f35b61012760048036038101906101229190610aa9565b61038c565b005b610143600480360381019061013e9190610aa9565b610639565b6040516101539493929190610c95565b60405180910390f35b61017660048036038101906101719190610a3f565b610731565b005b60025481565b6040518060800160405280600073ffffffffffffffffffffffffffffffffffffffff168152602001600081526020018281526020013373ffffffffffffffffffffffffffffffffffffffff1681525060036000600254815260200190815260200160002060008201518160000160006101000a81548173ffffffffffffffffffffffffffffffffffffffff021916908373ffffffffffffffffffffffffffffffffffffffff16021790555060208201518160010155604082015181600201908051906020019061024f9291906108f5565b5060608201518160030160006101000a81548173ffffffffffffffffffffffffffffffffffffffff021916908373ffffffffffffffffffffffffffffffffffffffff160217905550905050600260008154809291906102ad90610f03565b919050555050565b6102bd610829565b73ffffffffffffffffffffffffffffffffffffffff166102db610363565b73ffffffffffffffffffffffffffffffffffffffff1614610331576040517f08c379a000000000000000000000000000000000000000000000000000000000815260040161032890610d1c565b60405180910390fd5b61033b6000610831565b565b600160009054906101000a900473ffffffffffffffffffffffffffffffffffffffff1681565b60008060009054906101000a900473ffffffffffffffffffffffffffffffffffffffff16905090565b610394610829565b73ffffffffffffffffffffffffffffffffffffffff166103b2610363565b73ffffffffffffffffffffffffffffffffffffffff1614610408576040517f08c379a00000000000000000000000000000000000000000000000000000000081526004016103ff90610d1c565b60405180910390fd5b60025481111561044d576040517f08c379a000000000000000000000000000000000000000000000000000000000815260040161044490610d3c565b60405180910390fd5b336003600083815260200190815260200160002060000160006101000a81548173ffffffffffffffffffffffffffffffffffffffff021916908373ffffffffffffffffffffffffffffffffffffffff160217905550600160009054906101000a900473ffffffffffffffffffffffffffffffffffffffff1673ffffffffffffffffffffffffffffffffffffffff1663d0def5216003600084815260200190815260200160002060030160009054906101000a900473ffffffffffffffffffffffffffffffffffffffff16600360008581526020019081526020016000206002016040518363ffffffff1660e01b815260040161054a929190610c65565b600060405180830381600087803b15801561056457600080fd5b505af1158015610578573d6000803e3d6000fd5b50505050600160009054906101000a900473ffffffffffffffffffffffffffffffffffffffff1673ffffffffffffffffffffffffffffffffffffffff166317d70f7c6040518163ffffffff1660e01b815260040160206040518083038186803b1580156105e457600080fd5b505afa1580156105f8573d6000803e3d6000fd5b505050506040513d601f19601f8201168201806040525081019061061c9190610ad2565b600360008381526020019081526020016000206001018190555050565b60036020528060005260406000206000915090508060000160009054906101000a900473ffffffffffffffffffffffffffffffffffffffff169080600101549080600201805461068890610ea0565b80601f01602080910402602001604051908101604052809291908181526020018280546106b490610ea0565b80156107015780601f106106d657610100808354040283529160200191610701565b820191906000526020600020905b8154815290600101906020018083116106e457829003601f168201915b5050505050908060030160009054906101000a900473ffffffffffffffffffffffffffffffffffffffff16905084565b610739610829565b73ffffffffffffffffffffffffffffffffffffffff16610757610363565b73ffffffffffffffffffffffffffffffffffffffff16146107ad576040517f08c379a00000000000000000000000000000000000000000000000000000000081526004016107a490610d1c565b60405180910390fd5b600073ffffffffffffffffffffffffffffffffffffffff168173ffffffffffffffffffffffffffffffffffffffff16141561081d576040517f08c379a000000000000000000000000000000000000000000000000000000000815260040161081490610cfc565b60405180910390fd5b61082681610831565b50565b600033905090565b60008060009054906101000a900473ffffffffffffffffffffffffffffffffffffffff169050816000806101000a81548173ffffffffffffffffffffffffffffffffffffffff021916908373ffffffffffffffffffffffffffffffffffffffff1602179055508173ffffffffffffffffffffffffffffffffffffffff168173ffffffffffffffffffffffffffffffffffffffff167f8be0079c531659141344cd1fd0a4f28419497f9722a3daafe3b4186f6b6457e060405160405180910390a35050565b82805461090190610ea0565b90600052602060002090601f016020900481019282610923576000855561096a565b82601f1061093c57805160ff191683800117855561096a565b8280016001018555821561096a579182015b8281111561096957825182559160200191906001019061094e565b5b509050610977919061097b565b5090565b5b8082111561099457600081600090555060010161097c565b5090565b60006109ab6109a684610d9c565b610d77565b9050828152602081018484840111156109c357600080fd5b6109ce848285610e5e565b509392505050565b6000813590506109e58161108b565b92915050565b600082601f8301126109fc57600080fd5b8135610a0c848260208601610998565b91505092915050565b600081359050610a24816110a2565b92915050565b600081519050610a39816110a2565b92915050565b600060208284031215610a5157600080fd5b6000610a5f848285016109d6565b91505092915050565b600060208284031215610a7a57600080fd5b600082013567ffffffffffffffff811115610a9457600080fd5b610aa0848285016109eb565b91505092915050565b600060208284031215610abb57600080fd5b6000610ac984828501610a15565b91505092915050565b600060208284031215610ae457600080fd5b6000610af284828501610a2a565b91505092915050565b610b0481610dfe565b82525050565b610b1381610e3a565b82525050565b6000610b2482610de2565b610b2e8185610ded565b9350610b3e818560208601610e6d565b610b4781610fd9565b840191505092915050565b60008154610b5f81610ea0565b610b698186610ded565b94506001821660008114610b845760018114610b9657610bc9565b60ff1983168652602086019350610bc9565b610b9f85610dcd565b60005b83811015610bc157815481890152600182019150602081019050610ba2565b808801955050505b50505092915050565b6000610bdf602683610ded565b9150610bea82610fea565b604082019050919050565b6000610c02602083610ded565b9150610c0d82611039565b602082019050919050565b6000610c25601083610ded565b9150610c3082611062565b602082019050919050565b610c4481610e30565b82525050565b6000602082019050610c5f6000830184610afb565b92915050565b6000604082019050610c7a6000830185610afb565b8181036020830152610c8c8184610b52565b90509392505050565b6000608082019050610caa6000830187610afb565b610cb76020830186610c3b565b8181036040830152610cc98185610b19565b9050610cd86060830184610afb565b95945050505050565b6000602082019050610cf66000830184610b0a565b92915050565b60006020820190508181036000830152610d1581610bd2565b9050919050565b60006020820190508181036000830152610d3581610bf5565b9050919050565b60006020820190508181036000830152610d5581610c18565b9050919050565b6000602082019050610d716000830184610c3b565b92915050565b6000610d81610d92565b9050610d8d8282610ed2565b919050565b6000604051905090565b600067ffffffffffffffff821115610db757610db6610faa565b5b610dc082610fd9565b9050602081019050919050565b60008190508160005260206000209050919050565b600081519050919050565b600082825260208201905092915050565b6000610e0982610e10565b9050919050565b600073ffffffffffffffffffffffffffffffffffffffff82169050919050565b6000819050919050565b6000610e4582610e4c565b9050919050565b6000610e5782610e10565b9050919050565b82818337600083830152505050565b60005b83811015610e8b578082015181840152602081019050610e70565b83811115610e9a576000848401525b50505050565b60006002820490506001821680610eb857607f821691505b60208210811415610ecc57610ecb610f7b565b5b50919050565b610edb82610fd9565b810181811067ffffffffffffffff82111715610efa57610ef9610faa565b5b80604052505050565b6000610f0e82610e30565b91507fffffffffffffffffffffffffffffffffffffffffffffffffffffffffffffffff821415610f4157610f40610f4c565b5b600182019050919050565b7f4e487b7100000000000000000000000000000000000000000000000000000000600052601160045260246000fd5b7f4e487b7100000000000000000000000000000000000000000000000000000000600052602260045260246000fd5b7f4e487b7100000000000000000000000000000000000000000000000000000000600052604160045260246000fd5b6000601f19601f8301169050919050565b7f4f776e61626c653a206e6577206f776e657220697320746865207a65726f206160008201527f6464726573730000000000000000000000000000000000000000000000000000602082015250565b7f4f776e61626c653a2063616c6c6572206973206e6f7420746865206f776e6572600082015250565b7f496e76616c69642070726f706f73616c00000000000000000000000000000000600082015250565b61109481610dfe565b811461109f57600080fd5b50565b6110ab81610e30565b81146110b657600080fd5b5056fea26469706673582212208dd03a76ecdaadfc48dc2bc63867805ddaf8847f59dca7af16b90e0258dcbc5764736f6c6343000804003360806040523480156200001157600080fd5b506040518060400160405280601281526020017f4b6576696e2773204578706572696d656e7400000000000000000000000000008152506040518060400160405280600281526020017f4b5a000000000000000000000000000000000000000000000000000000000000815250816000908051906020019062000096929190620002f7565b508060019080519060200190620000af929190620002f7565b505050620000d2620000c6620000e960201b60201c565b620000f160201b60201c565b620000e333620001b760201b60201c565b62000527565b600033905090565b6000600a60009054906101000a900473ffffffffffffffffffffffffffffffffffffffff16905081600a60006101000a81548173ffffffffffffffffffffffffffffffffffffffff021916908373ffffffffffffffffffffffffffffffffffffffff1602179055508173ffffffffffffffffffffffffffffffffffffffff168173ffffffffffffffffffffffffffffffffffffffff167f8be0079c531659141344cd1fd0a4f28419497f9722a3daafe3b4186f6b6457e060405160405180910390a35050565b620001c7620000e960201b60201c565b73ffffffffffffffffffffffffffffffffffffffff16620001ed620002cd60201b60201c565b73ffffffffffffffffffffffffffffffffffffffff161462000246576040517f08c379a00000000000000000000000000000000000000000000000000000000081526004016200023d9062000417565b60405180910390fd5b600073ffffffffffffffffffffffffffffffffffffffff168173ffffffffffffffffffffffffffffffffffffffff161415620002b9576040517f08c379a0000000000000000000000000000000000000000000000000000000008152600401620002b090620003f5565b60405180910390fd5b620002ca81620000f160201b60201c565b50565b6000600a60009054906101000a900473ffffffffffffffffffffffffffffffffffffffff16905090565b82805462000305906200044a565b90600052602060002090601f01602090048101928262000329576000855562000375565b82601f106200034457805160ff191683800117855562000375565b8280016001018555821562000375579182015b828111156200037457825182559160200191906001019062000357565b5b50905062000384919062000388565b5090565b5b80821115620003a357600081600090555060010162000389565b5090565b6000620003b660268362000439565b9150620003c382620004af565b604082019050919050565b6000620003dd60208362000439565b9150620003ea82620004fe565b602082019050919050565b600060208201905081810360008301526200041081620003a7565b9050919050565b600060208201905081810360008301526200043281620003ce565b9050919050565b600082825260208201905092915050565b600060028204905060018216806200046357607f821691505b602082108114156200047a576200047962000480565b5b50919050565b7f4e487b7100000000000000000000000000000000000000000000000000000000600052602260045260246000fd5b7f4f776e61626c653a206e6577206f776e657220697320746865207a65726f206160008201527f6464726573730000000000000000000000000000000000000000000000000000602082015250565b7f4f776e61626c653a2063616c6c6572206973206e6f7420746865206f776e6572600082015250565b61364980620005376000396000f3fe60806040526004361061014b5760003560e01c80636c8b703f116100b6578063b88d4fde1161006f578063b88d4fde146104ca578063b9bc99c2146104f3578063c87b56dd14610530578063d0def5211461056d578063e985e9c514610589578063f2fde38b146105c65761014b565b80636c8b703f146103ba57806370a08231146103f7578063715018a6146104345780638da5cb5b1461044b57806395d89b4114610476578063a22cb465146104a15761014b565b806323b872dd1161010857806323b872dd146102745780632f745c591461029d57806342842e0e146102da5780634f6ccce714610303578063500fbcb5146103405780636352211e1461037d5761014b565b806301ffc9a71461015057806306fdde031461018d578063081812fc146101b8578063095ea7b3146101f557806317d70f7c1461021e57806318160ddd14610249575b600080fd5b34801561015c57600080fd5b506101776004803603810190610172919061270f565b6105ef565b6040516101849190612b06565b60405180910390f35b34801561019957600080fd5b506101a2610669565b6040516101af9190612b21565b60405180910390f35b3480156101c457600080fd5b506101df60048036038101906101da9190612761565b6106fb565b6040516101ec9190612a9f565b60405180910390f35b34801561020157600080fd5b5061021c600480360381019061021791906126d3565b610780565b005b34801561022a57600080fd5b50610233610898565b6040516102409190612d83565b60405180910390f35b34801561025557600080fd5b5061025e61089e565b60405161026b9190612d83565b60405180910390f35b34801561028057600080fd5b5061029b60048036038101906102969190612579565b6108ab565b005b3480156102a957600080fd5b506102c460048036038101906102bf91906126d3565b610937565b6040516102d19190612d83565b60405180910390f35b3480156102e657600080fd5b5061030160048036038101906102fc9190612579565b6109dc565b005b34801561030f57600080fd5b5061032a60048036038101906103259190612761565b6109fc565b6040516103379190612d83565b60405180910390f35b34801561034c57600080fd5b5061036760048036038101906103629190612761565b610a93565b6040516103749190612a9f565b60405180910390f35b34801561038957600080fd5b506103a4600480360381019061039f9190612761565b610ac6565b6040516103b19190612a9f565b60405180910390f35b3480156103c657600080fd5b506103e160048036038101906103dc9190612761565b610b78565b6040516103ee9190612b21565b60405180910390f35b34801561040357600080fd5b5061041e60048036038101906104199190612514565b610c18565b60405161042b9190612d83565b60405180910390f35b34801561044057600080fd5b50610449610cd0565b005b34801561045757600080fd5b50610460610d58565b60405161046d9190612a9f565b60405180910390f35b34801561048257600080fd5b5061048b610d82565b6040516104989190612b21565b60405180910390f35b3480156104ad57600080fd5b506104c860048036038101906104c39190612643565b610e14565b005b3480156104d657600080fd5b506104f160048036038101906104ec91906125c8565b610f95565b005b3480156104ff57600080fd5b5061051a60048036038101906105159190612761565b610ff7565b6040516105279190612b06565b60405180910390f35b34801561053c57600080fd5b5061055760048036038101906105529190612761565b6110a7565b6040516105649190612b21565b60405180910390f35b6105876004803603810190610582919061267f565b61114c565b005b34801561059557600080fd5b506105b060048036038101906105ab919061253d565b61126e565b6040516105bd9190612b06565b60405180910390f35b3480156105d257600080fd5b506105ed60048036038101906105e89190612514565b611302565b005b60007f780e9d63000000000000000000000000000000000000000000000000000000007bffffffffffffffffffffffffffffffffffffffffffffffffffffffff1916827bffffffffffffffffffffffffffffffffffffffffffffffffffffffff191614806106625750610661826113fa565b5b9050919050565b60606000805461067890612f9d565b80601f01602080910402602001604051908101604052809291908181526020018280546106a490612f9d565b80156106f15780601f106106c6576101008083540402835291602001916106f1565b820191906000526020600020905b8154815290600101906020018083116106d457829003601f168201915b5050505050905090565b6000610706826114dc565b610745576040517f08c379a000000000000000000000000000000000000000000000000000000000815260040161073c90612cc3565b60405180910390fd5b6004600083815260200190815260200160002060009054906101000a900473ffffffffffffffffffffffffffffffffffffffff169050919050565b600061078b82610ac6565b90508073ffffffffffffffffffffffffffffffffffffffff168373ffffffffffffffffffffffffffffffffffffffff1614156107fc576040517f08c379a00000000000000000000000000000000000000000000000000000000081526004016107f390612d23565b60405180910390fd5b8073ffffffffffffffffffffffffffffffffffffffff1661081b611548565b73ffffffffffffffffffffffffffffffffffffffff16148061084a575061084981610844611548565b61126e565b5b610889576040517f08c379a000000000000000000000000000000000000000000000000000000000815260040161088090612c43565b60405180910390fd5b6108938383611550565b505050565b600d5481565b6000600880549050905090565b6108b3611548565b73ffffffffffffffffffffffffffffffffffffffff166108d1610d58565b73ffffffffffffffffffffffffffffffffffffffff1614610927576040517f08c379a000000000000000000000000000000000000000000000000000000000815260040161091e90612ce3565b60405180910390fd5b610932838383611609565b505050565b600061094283610c18565b8210610983576040517f08c379a000000000000000000000000000000000000000000000000000000000815260040161097a90612b43565b60405180910390fd5b600660008473ffffffffffffffffffffffffffffffffffffffff1673ffffffffffffffffffffffffffffffffffffffff168152602001908152602001600020600083815260200190815260200160002054905092915050565b6109f783838360405180602001604052806000815250610f95565b505050565b6000610a0661089e565b8210610a47576040517f08c379a0000000000000000000000000000000000000000000000000000000008152600401610a3e90612d63565b60405180910390fd5b60088281548110610a81577f4e487b7100000000000000000000000000000000000000000000000000000000600052603260045260246000fd5b90600052602060002001549050919050565b600c6020528060005260406000206000915054906101000a900473ffffffffffffffffffffffffffffffffffffffff1681565b6000806002600084815260200190815260200160002060009054906101000a900473ffffffffffffffffffffffffffffffffffffffff169050600073ffffffffffffffffffffffffffffffffffffffff168173ffffffffffffffffffffffffffffffffffffffff161415610b6f576040517f08c379a0000000000000000000000000000000000000000000000000000000008152600401610b6690612c83565b60405180910390fd5b80915050919050565b600b6020528060005260406000206000915090508054610b9790612f9d565b80601f0160208091040260200160405190810160405280929190818152602001828054610bc390612f9d565b8015610c105780601f10610be557610100808354040283529160200191610c10565b820191906000526020600020905b815481529060010190602001808311610bf357829003601f168201915b505050505081565b60008073ffffffffffffffffffffffffffffffffffffffff168273ffffffffffffffffffffffffffffffffffffffff161415610c89576040517f08c379a0000000000000000000000000000000000000000000000000000000008152600401610c8090612c63565b60405180910390fd5b600360008373ffffffffffffffffffffffffffffffffffffffff1673ffffffffffffffffffffffffffffffffffffffff168152602001908152602001600020549050919050565b610cd8611548565b73ffffffffffffffffffffffffffffffffffffffff16610cf6610d58565b73ffffffffffffffffffffffffffffffffffffffff1614610d4c576040517f08c379a0000000000000000000000000000000000000000000000000000000008152600401610d4390612ce3565b60405180910390fd5b610d566000611669565b565b6000600a60009054906101000a900473ffffffffffffffffffffffffffffffffffffffff16905090565b606060018054610d9190612f9d565b80601f0160208091040260200160405190810160405280929190818152602001828054610dbd90612f9d565b8015610e0a5780601f10610ddf57610100808354040283529160200191610e0a565b820191906000526020600020905b815481529060010190602001808311610ded57829003601f168201915b5050505050905090565b610e1c611548565b73ffffffffffffffffffffffffffffffffffffffff168273ffffffffffffffffffffffffffffffffffffffff161415610e8a576040517f08c379a0000000000000000000000000000000000000000000000000000000008152600401610e8190612be3565b60405180910390fd5b8060056000610e97611548565b73ffffffffffffffffffffffffffffffffffffffff1673ffffffffffffffffffffffffffffffffffffffff16815260200190815260200160002060008473ffffffffffffffffffffffffffffffffffffffff1673ffffffffffffffffffffffffffffffffffffffff16815260200190815260200160002060006101000a81548160ff0219169083151502179055508173ffffffffffffffffffffffffffffffffffffffff16610f44611548565b73ffffffffffffffffffffffffffffffffffffffff167f17307eab39ab6107e8899845ad3d59bd9653f200f220920489ca2b5937696c3183604051610f899190612b06565b60405180910390a35050565b610fa6610fa0611548565b8361172f565b610fe5576040517f08c379a0000000000000000000000000000000000000000000000000000000008152600401610fdc90612d43565b60405180910390fd5b610ff18484848461180d565b50505050565b6000600d5482111561103e576040517f08c379a000000000000000000000000000000000000000000000000000000000815260040161103590612c03565b60405180910390fd5b600c600083815260200190815260200160002060009054906101000a900473ffffffffffffffffffffffffffffffffffffffff1673ffffffffffffffffffffffffffffffffffffffff163373ffffffffffffffffffffffffffffffffffffffff16149050919050565b6060600b600083815260200190815260200160002080546110c790612f9d565b80601f01602080910402602001604051908101604052809291908181526020018280546110f390612f9d565b80156111405780601f1061111557610100808354040283529160200191611140565b820191906000526020600020905b81548152906001019060200180831161112357829003601f168201915b50505050509050919050565b611154611548565b73ffffffffffffffffffffffffffffffffffffffff16611172610d58565b73ffffffffffffffffffffffffffffffffffffffff16146111c8576040517f08c379a00000000000000000000000000000000000000000000000000000000081526004016111bf90612ce3565b60405180910390fd5b80600b6000600d54815260200190815260200160002090805190602001906111f1929190612338565b5081600c6000600d54815260200190815260200160002060006101000a81548173ffffffffffffffffffffffffffffffffffffffff021916908373ffffffffffffffffffffffffffffffffffffffff16021790555061125282600d54611869565b600d600081548092919061126590613000565b91905055505050565b6000600560008473ffffffffffffffffffffffffffffffffffffffff1673ffffffffffffffffffffffffffffffffffffffff16815260200190815260200160002060008373ffffffffffffffffffffffffffffffffffffffff1673ffffffffffffffffffffffffffffffffffffffff16815260200190815260200160002060009054906101000a900460ff16905092915050565b61130a611548565b73ffffffffffffffffffffffffffffffffffffffff16611328610d58565b73ffffffffffffffffffffffffffffffffffffffff161461137e576040517f08c379a000000000000000000000000000000000000000000000000000000000815260040161137590612ce3565b60405180910390fd5b600073ffffffffffffffffffffffffffffffffffffffff168173ffffffffffffffffffffffffffffffffffffffff1614156113ee576040517f08c379a00000000000000000000000000000000000000000000000000000000081526004016113e590612b83565b60405180910390fd5b6113f781611669565b50565b60007f80ac58cd000000000000000000000000000000000000000000000000000000007bffffffffffffffffffffffffffffffffffffffffffffffffffffffff1916827bffffffffffffffffffffffffffffffffffffffffffffffffffffffff191614806114c557507f5b5e139f000000000000000000000000000000000000000000000000000000007bffffffffffffffffffffffffffffffffffffffffffffffffffffffff1916827bffffffffffffffffffffffffffffffffffffffffffffffffffffffff1916145b806114d557506114d482611a37565b5b9050919050565b60008073ffffffffffffffffffffffffffffffffffffffff166002600084815260200190815260200160002060009054906101000a900473ffffffffffffffffffffffffffffffffffffffff1673ffffffffffffffffffffffffffffffffffffffff1614159050919050565b600033905090565b816004600083815260200190815260200160002060006101000a81548173ffffffffffffffffffffffffffffffffffffffff021916908373ffffffffffffffffffffffffffffffffffffffff160217905550808273ffffffffffffffffffffffffffffffffffffffff166115c383610ac6565b73ffffffffffffffffffffffffffffffffffffffff167f8c5be1e5ebec7d5bd14f71427d1e84f3dd0314c0f7b2291e5b200ac8c7c3b92560405160405180910390a45050565b61161a611614611548565b8261172f565b611659576040517f08c379a000000000000000000000000000000000000000000000000000000000815260040161165090612d43565b60405180910390fd5b611664838383611aa1565b505050565b6000600a60009054906101000a900473ffffffffffffffffffffffffffffffffffffffff16905081600a60006101000a81548173ffffffffffffffffffffffffffffffffffffffff021916908373ffffffffffffffffffffffffffffffffffffffff1602179055508173ffffffffffffffffffffffffffffffffffffffff168173ffffffffffffffffffffffffffffffffffffffff167f8be0079c531659141344cd1fd0a4f28419497f9722a3daafe3b4186f6b6457e060405160405180910390a35050565b600061173a826114dc565b611779576040517f08c379a000000000000000000000000000000000000000000000000000000000815260040161177090612c23565b60405180910390fd5b600061178483610ac6565b90508073ffffffffffffffffffffffffffffffffffffffff168473ffffffffffffffffffffffffffffffffffffffff1614806117f357508373ffffffffffffffffffffffffffffffffffffffff166117db846106fb565b73ffffffffffffffffffffffffffffffffffffffff16145b806118045750611803818561126e565b5b91505092915050565b611818848484611aa1565b61182484848484611cfd565b611863576040517f08c379a000000000000000000000000000000000000000000000000000000000815260040161185a90612b63565b60405180910390fd5b50505050565b600073ffffffffffffffffffffffffffffffffffffffff168273ffffffffffffffffffffffffffffffffffffffff1614156118d9576040517f08c379a00000000000000000000000000000000000000000000000000000000081526004016118d090612ca3565b60405180910390fd5b6118e2816114dc565b15611922576040517f08c379a000000000000000000000000000000000000000000000000000000000815260040161191990612ba3565b60405180910390fd5b61192e60008383611e94565b6001600360008473ffffffffffffffffffffffffffffffffffffffff1673ffffffffffffffffffffffffffffffffffffffff168152602001908152602001600020600082825461197e9190612e5d565b92505081905550816002600083815260200190815260200160002060006101000a81548173ffffffffffffffffffffffffffffffffffffffff021916908373ffffffffffffffffffffffffffffffffffffffff160217905550808273ffffffffffffffffffffffffffffffffffffffff16600073ffffffffffffffffffffffffffffffffffffffff167fddf252ad1be2c89b69c2b068fc378daa952ba7f163c4a11628f55a4df523b3ef60405160405180910390a45050565b60007f01ffc9a7000000000000000000000000000000000000000000000000000000007bffffffffffffffffffffffffffffffffffffffffffffffffffffffff1916827bffffffffffffffffffffffffffffffffffffffffffffffffffffffff1916149050919050565b8273ffffffffffffffffffffffffffffffffffffffff16611ac182610ac6565b73ffffffffffffffffffffffffffffffffffffffff1614611b17576040517f08c379a0000000000000000000000000000000000000000000000000000000008152600401611b0e90612d03565b60405180910390fd5b600073ffffffffffffffffffffffffffffffffffffffff168273ffffffffffffffffffffffffffffffffffffffff161415611b87576040517f08c379a0000000000000000000000000000000000000000000000000000000008152600401611b7e90612bc3565b60405180910390fd5b611b92838383611e94565b611b9d600082611550565b6001600360008573ffffffffffffffffffffffffffffffffffffffff1673ffffffffffffffffffffffffffffffffffffffff1681526020019081526020016000206000828254611bed9190612eb3565b925050819055506001600360008473ffffffffffffffffffffffffffffffffffffffff1673ffffffffffffffffffffffffffffffffffffffff1681526020019081526020016000206000828254611c449190612e5d565b92505081905550816002600083815260200190815260200160002060006101000a81548173ffffffffffffffffffffffffffffffffffffffff021916908373ffffffffffffffffffffffffffffffffffffffff160217905550808273ffffffffffffffffffffffffffffffffffffffff168473ffffffffffffffffffffffffffffffffffffffff167fddf252ad1be2c89b69c2b068fc378daa952ba7f163c4a11628f55a4df523b3ef60405160405180910390a4505050565b6000611d1e8473ffffffffffffffffffffffffffffffffffffffff16611fa8565b15611e87578373ffffffffffffffffffffffffffffffffffffffff1663150b7a02611d47611548565b8786866040518563ffffffff1660e01b8152600401611d699493929190612aba565b602060405180830381600087803b158015611d8357600080fd5b505af1925050508015611db457506040513d601f19601f82011682018060405250810190611db19190612738565b60015b611e37573d8060008114611de4576040519150601f19603f3d011682016040523d82523d6000602084013e611de9565b606091505b50600081511415611e2f576040517f08c379a0000000000000000000000000000000000000000000000000000000008152600401611e2690612b63565b60405180910390fd5b805181602001fd5b63150b7a0260e01b7bffffffffffffffffffffffffffffffffffffffffffffffffffffffff1916817bffffffffffffffffffffffffffffffffffffffffffffffffffffffff191614915050611e8c565b600190505b949350505050565b611e9f838383611fbb565b600073ffffffffffffffffffffffffffffffffffffffff168373ffffffffffffffffffffffffffffffffffffffff161415611ee257611edd81611fc0565b611f21565b8173ffffffffffffffffffffffffffffffffffffffff168373ffffffffffffffffffffffffffffffffffffffff1614611f2057611f1f8382612009565b5b5b600073ffffffffffffffffffffffffffffffffffffffff168273ffffffffffffffffffffffffffffffffffffffff161415611f6457611f5f81612176565b611fa3565b8273ffffffffffffffffffffffffffffffffffffffff168273ffffffffffffffffffffffffffffffffffffffff1614611fa257611fa182826122b9565b5b5b505050565b600080823b905060008111915050919050565b505050565b6008805490506009600083815260200190815260200160002081905550600881908060018154018082558091505060019003906000526020600020016000909190919091505550565b6000600161201684610c18565b6120209190612eb3565b9050600060076000848152602001908152602001600020549050818114612105576000600660008673ffffffffffffffffffffffffffffffffffffffff1673ffffffffffffffffffffffffffffffffffffffff168152602001908152602001600020600084815260200190815260200160002054905080600660008773ffffffffffffffffffffffffffffffffffffffff1673ffffffffffffffffffffffffffffffffffffffff168152602001908152602001600020600084815260200190815260200160002081905550816007600083815260200190815260200160002081905550505b6007600084815260200190815260200160002060009055600660008573ffffffffffffffffffffffffffffffffffffffff1673ffffffffffffffffffffffffffffffffffffffff16815260200190815260200160002060008381526020019081526020016000206000905550505050565b6000600160088054905061218a9190612eb3565b90506000600960008481526020019081526020016000205490506000600883815481106121e0577f4e487b7100000000000000000000000000000000000000000000000000000000600052603260045260246000fd5b906000526020600020015490508060088381548110612228577f4e487b7100000000000000000000000000000000000000000000000000000000600052603260045260246000fd5b90600052602060002001819055508160096000838152602001908152602001600020819055506009600085815260200190815260200160002060009055600880548061229d577f4e487b7100000000000000000000000000000000000000000000000000000000600052603160045260246000fd5b6001900381819060005260206000200160009055905550505050565b60006122c483610c18565b905081600660008573ffffffffffffffffffffffffffffffffffffffff1673ffffffffffffffffffffffffffffffffffffffff168152602001908152602001600020600083815260200190815260200160002081905550806007600084815260200190815260200160002081905550505050565b82805461234490612f9d565b90600052602060002090601f01602090048101928261236657600085556123ad565b82601f1061237f57805160ff19168380011785556123ad565b828001600101855582156123ad579182015b828111156123ac578251825591602001919060010190612391565b5b5090506123ba91906123be565b5090565b5b808211156123d75760008160009055506001016123bf565b5090565b60006123ee6123e984612dc3565b612d9e565b90508281526020810184848401111561240657600080fd5b612411848285612f5b565b509392505050565b600061242c61242784612df4565b612d9e565b90508281526020810184848401111561244457600080fd5b61244f848285612f5b565b509392505050565b600081359050612466816135b7565b92915050565b60008135905061247b816135ce565b92915050565b600081359050612490816135e5565b92915050565b6000815190506124a5816135e5565b92915050565b600082601f8301126124bc57600080fd5b81356124cc8482602086016123db565b91505092915050565b600082601f8301126124e657600080fd5b81356124f6848260208601612419565b91505092915050565b60008135905061250e816135fc565b92915050565b60006020828403121561252657600080fd5b600061253484828501612457565b91505092915050565b6000806040838503121561255057600080fd5b600061255e85828601612457565b925050602061256f85828601612457565b9150509250929050565b60008060006060848603121561258e57600080fd5b600061259c86828701612457565b93505060206125ad86828701612457565b92505060406125be868287016124ff565b9150509250925092565b600080600080608085870312156125de57600080fd5b60006125ec87828801612457565b94505060206125fd87828801612457565b935050604061260e878288016124ff565b925050606085013567ffffffffffffffff81111561262b57600080fd5b612637878288016124ab565b91505092959194509250565b6000806040838503121561265657600080fd5b600061266485828601612457565b92505060206126758582860161246c565b9150509250929050565b6000806040838503121561269257600080fd5b60006126a085828601612457565b925050602083013567ffffffffffffffff8111156126bd57600080fd5b6126c9858286016124d5565b9150509250929050565b600080604083850312156126e657600080fd5b60006126f485828601612457565b9250506020612705858286016124ff565b9150509250929050565b60006020828403121561272157600080fd5b600061272f84828501612481565b91505092915050565b60006020828403121561274a57600080fd5b600061275884828501612496565b91505092915050565b60006020828403121561277357600080fd5b6000612781848285016124ff565b91505092915050565b61279381612ee7565b82525050565b6127a281612ef9565b82525050565b60006127b382612e25565b6127bd8185612e3b565b93506127cd818560208601612f6a565b6127d6816130d6565b840191505092915050565b60006127ec82612e30565b6127f68185612e4c565b9350612806818560208601612f6a565b61280f816130d6565b840191505092915050565b6000612827602b83612e4c565b9150612832826130e7565b604082019050919050565b600061284a603283612e4c565b915061285582613136565b604082019050919050565b600061286d602683612e4c565b915061287882613185565b604082019050919050565b6000612890601c83612e4c565b915061289b826131d4565b602082019050919050565b60006128b3602483612e4c565b91506128be826131fd565b604082019050919050565b60006128d6601983612e4c565b91506128e18261324c565b602082019050919050565b60006128f9601083612e4c565b915061290482613275565b602082019050919050565b600061291c602c83612e4c565b91506129278261329e565b604082019050919050565b600061293f603883612e4c565b915061294a826132ed565b604082019050919050565b6000612962602a83612e4c565b915061296d8261333c565b604082019050919050565b6000612985602983612e4c565b91506129908261338b565b604082019050919050565b60006129a8602083612e4c565b91506129b3826133da565b602082019050919050565b60006129cb602c83612e4c565b91506129d682613403565b604082019050919050565b60006129ee602083612e4c565b91506129f982613452565b602082019050919050565b6000612a11602983612e4c565b9150612a1c8261347b565b604082019050919050565b6000612a34602183612e4c565b9150612a3f826134ca565b604082019050919050565b6000612a57603183612e4c565b9150612a6282613519565b604082019050919050565b6000612a7a602c83612e4c565b9150612a8582613568565b604082019050919050565b612a9981612f51565b82525050565b6000602082019050612ab4600083018461278a565b92915050565b6000608082019050612acf600083018761278a565b612adc602083018661278a565b612ae96040830185612a90565b8181036060830152612afb81846127a8565b905095945050505050565b6000602082019050612b1b6000830184612799565b92915050565b60006020820190508181036000830152612b3b81846127e1565b905092915050565b60006020820190508181036000830152612b5c8161281a565b9050919050565b60006020820190508181036000830152612b7c8161283d565b9050919050565b60006020820190508181036000830152612b9c81612860565b9050919050565b60006020820190508181036000830152612bbc81612883565b9050919050565b60006020820190508181036000830152612bdc816128a6565b9050919050565b60006020820190508181036000830152612bfc816128c9565b9050919050565b60006020820190508181036000830152612c1c816128ec565b9050919050565b60006020820190508181036000830152612c3c8161290f565b9050919050565b60006020820190508181036000830152612c5c81612932565b9050919050565b60006020820190508181036000830152612c7c81612955565b9050919050565b60006020820190508181036000830152612c9c81612978565b9050919050565b60006020820190508181036000830152612cbc8161299b565b9050919050565b60006020820190508181036000830152612cdc816129be565b9050919050565b60006020820190508181036000830152612cfc816129e1565b9050919050565b60006020820190508181036000830152612d1c81612a04565b9050919050565b60006020820190508181036000830152612d3c81612a27565b9050919050565b60006020820190508181036000830152612d5c81612a4a565b9050919050565b60006020820190508181036000830152612d7c81612a6d565b9050919050565b6000602082019050612d986000830184612a90565b92915050565b6000612da8612db9565b9050612db48282612fcf565b919050565b6000604051905090565b600067ffffffffffffffff821115612dde57612ddd6130a7565b5b612de7826130d6565b9050602081019050919050565b600067ffffffffffffffff821115612e0f57612e0e6130a7565b5b612e18826130d6565b9050602081019050919050565b600081519050919050565b600081519050919050565b600082825260208201905092915050565b600082825260208201905092915050565b6000612e6882612f51565b9150612e7383612f51565b9250827fffffffffffffffffffffffffffffffffffffffffffffffffffffffffffffffff03821115612ea857612ea7613049565b5b828201905092915050565b6000612ebe82612f51565b9150612ec983612f51565b925082821015612edc57612edb613049565b5b828203905092915050565b6000612ef282612f31565b9050919050565b60008115159050919050565b60007fffffffff0000000000000000000000000000000000000000000000000000000082169050919050565b600073ffffffffffffffffffffffffffffffffffffffff82169050919050565b6000819050919050565b82818337600083830152505050565b60005b83811015612f88578082015181840152602081019050612f6d565b83811115612f97576000848401525b50505050565b60006002820490506001821680612fb557607f821691505b60208210811415612fc957612fc8613078565b5b50919050565b612fd8826130d6565b810181811067ffffffffffffffff82111715612ff757612ff66130a7565b5b80604052505050565b600061300b82612f51565b91507fffffffffffffffffffffffffffffffffffffffffffffffffffffffffffffffff82141561303e5761303d613049565b5b600182019050919050565b7f4e487b7100000000000000000000000000000000000000000000000000000000600052601160045260246000fd5b7f4e487b7100000000000000000000000000000000000000000000000000000000600052602260045260246000fd5b7f4e487b7100000000000000000000000000000000000000000000000000000000600052604160045260246000fd5b6000601f19601f8301169050919050565b7f455243373231456e756d657261626c653a206f776e657220696e646578206f7560008201527f74206f6620626f756e6473000000000000000000000000000000000000000000602082015250565b7f4552433732313a207472616e7366657220746f206e6f6e20455243373231526560008201527f63656976657220696d706c656d656e7465720000000000000000000000000000602082015250565b7f4f776e61626c653a206e6577206f776e657220697320746865207a65726f206160008201527f6464726573730000000000000000000000000000000000000000000000000000602082015250565b7f4552433732313a20746f6b656e20616c7265616479206d696e74656400000000600082015250565b7f4552433732313a207472616e7366657220746f20746865207a65726f2061646460008201527f7265737300000000000000000000000000000000000000000000000000000000602082015250565b7f4552433732313a20617070726f766520746f2063616c6c657200000000000000600082015250565b7f496e76616c696420746f6b656e20696400000000000000000000000000000000600082015250565b7f4552433732313a206f70657261746f7220717565727920666f72206e6f6e657860008201527f697374656e7420746f6b656e0000000000000000000000000000000000000000602082015250565b7f4552433732313a20617070726f76652063616c6c6572206973206e6f74206f7760008201527f6e6572206e6f7220617070726f76656420666f7220616c6c0000000000000000602082015250565b7f4552433732313a2062616c616e636520717565727920666f7220746865207a6560008201527f726f206164647265737300000000000000000000000000000000000000000000602082015250565b7f4552433732313a206f776e657220717565727920666f72206e6f6e657869737460008201527f656e7420746f6b656e0000000000000000000000000000000000000000000000602082015250565b7f4552433732313a206d696e7420746f20746865207a65726f2061646472657373600082015250565b7f4552433732313a20617070726f76656420717565727920666f72206e6f6e657860008201527f697374656e7420746f6b656e0000000000000000000000000000000000000000602082015250565b7f4f776e61626c653a2063616c6c6572206973206e6f7420746865206f776e6572600082015250565b7f4552433732313a207472616e73666572206f6620746f6b656e2074686174206960008201527f73206e6f74206f776e0000000000000000000000000000000000000000000000602082015250565b7f4552433732313a20617070726f76616c20746f2063757272656e74206f776e6560008201527f7200000000000000000000000000000000000000000000000000000000000000602082015250565b7f4552433732313a207472616e736665722063616c6c6572206973206e6f74206f60008201527f776e6572206e6f7220617070726f766564000000000000000000000000000000602082015250565b7f455243373231456e756d657261626c653a20676c6f62616c20696e646578206f60008201527f7574206f6620626f756e64730000000000000000000000000000000000000000602082015250565b6135c081612ee7565b81146135cb57600080fd5b50565b6135d781612ef9565b81146135e257600080fd5b50565b6135ee81612f05565b81146135f957600080fd5b50565b61360581612f51565b811461361057600080fd5b5056fea26469706673582212205d6dcb47bc335c9d963de6ce305dabde9f5d91967c9c2493d0bf4f25238aad6564736f6c63430008040033",
  "linkReferences": {},
  "deployedLinkReferences": {}
}